{
  "abi": [
    {
      "inputs": [],
      "stateMutability": "nonpayable",
      "type": "constructor"
    },
    {
      "stateMutability": "payable",
      "type": "fallback"
    },
    {
      "inputs": [],
      "name": "deposit",
      "outputs": [],
      "stateMutability": "payable",
      "type": "function"
    },
    {
      "inputs": [
        {
          "internalType": "address",
          "name": "account",
          "type": "address"
        }
      ],
      "name": "getBalances",
      "outputs": [
        {
          "internalType": "uint256",
          "name": "",
          "type": "uint256"
        }
      ],
      "stateMutability": "view",
      "type": "function"
    },
    {
      "inputs": [],
      "name": "getLocktime",
      "outputs": [
        {
          "internalType": "uint256",
          "name": "",
          "type": "uint256"
        }
      ],
      "stateMutability": "view",
      "type": "function"
    },
    {
      "inputs": [],
      "name": "owner",
      "outputs": [
        {
          "internalType": "address",
          "name": "",
          "type": "address"
        }
      ],
      "stateMutability": "view",
      "type": "function"
    },
    {
      "inputs": [],
      "name": "returnThisContract",
      "outputs": [
        {
          "internalType": "uint256",
          "name": "",
          "type": "uint256"
        }
      ],
      "stateMutability": "view",
      "type": "function"
    },
    {
      "inputs": [],
      "name": "withdraw",
      "outputs": [],
      "stateMutability": "nonpayable",
      "type": "function"
    },
    {
      "stateMutability": "payable",
      "type": "receive"
    }
  ],
  "devdoc": {
    "kind": "dev",
    "methods": {},
    "version": 1
  },
  "evm": {
    "assembly": "    /* \"TimeLock.sol\":55:1845  contract Timelock {... */\n  mstore(0x40, 0x80)\n    /* \"TimeLock.sol\":180:230  constructor() {... */\n  callvalue\n  dup1\n  iszero\n  tag_1\n  jumpi\n  0x00\n  dup1\n  revert\ntag_1:\n  pop\n    /* \"TimeLock.sol\":204:210  _owner */\n  0x00\n    /* \"TimeLock.sol\":204:223  _owner = msg.sender */\n  dup1\n  sload\n  not(sub(shl(0xa0, 0x01), 0x01))\n  and\n    /* \"TimeLock.sol\":213:223  msg.sender */\n  caller\n    /* \"TimeLock.sol\":204:223  _owner = msg.sender */\n  or\n  swap1\n  sstore\n    /* \"TimeLock.sol\":55:1845  contract Timelock {... */\n  dataSize(sub_0)\n  dup1\n  dataOffset(sub_0)\n  0x00\n  codecopy\n  0x00\n  return\nstop\n\nsub_0: assembly {\n        /* \"TimeLock.sol\":55:1845  contract Timelock {... */\n      mstore(0x40, 0x80)\n      jumpi(tag_1, lt(calldatasize, 0x04))\n      shr(0xe0, calldataload(0x00))\n      dup1\n      0x8da5cb5b\n      gt\n      tag_9\n      jumpi\n      dup1\n      0x8da5cb5b\n      eq\n      tag_6\n      jumpi\n      dup1\n      0xc84aae17\n      eq\n      tag_7\n      jumpi\n      dup1\n      0xd0e30db0\n      eq\n      tag_8\n      jumpi\n      stop\n    tag_9:\n      dup1\n      0x19af2c44\n      eq\n      tag_3\n      jumpi\n      dup1\n      0x3ccfd60b\n      eq\n      tag_4\n      jumpi\n      dup1\n      0x670b2fbd\n      eq\n      tag_5\n      jumpi\n      stop\n    tag_1:\n      jumpi(tag_2, calldatasize)\n      stop\n    tag_2:\n      stop\n        /* \"TimeLock.sol\":1674:1776  function returnThisContract() public view returns(uint) {... */\n    tag_3:\n      callvalue\n      dup1\n      iszero\n      tag_14\n      jumpi\n      0x00\n      dup1\n      revert\n    tag_14:\n      pop\n        /* \"TimeLock.sol\":1747:1768  address(this).balance */\n      selfbalance\n        /* \"TimeLock.sol\":1674:1776  function returnThisContract() public view returns(uint) {... */\n    tag_15:\n      mload(0x40)\n        /* \"#utility.yul\":160:185   */\n      swap1\n      dup2\n      mstore\n        /* \"#utility.yul\":148:150   */\n      0x20\n        /* \"#utility.yul\":133:151   */\n      add\n        /* \"TimeLock.sol\":1674:1776  function returnThisContract() public view returns(uint) {... */\n    tag_17:\n      mload(0x40)\n      dup1\n      swap2\n      sub\n      swap1\n      return\n        /* \"TimeLock.sol\":1196:1669  function withdraw() public {... */\n    tag_4:\n      callvalue\n      dup1\n      iszero\n      tag_19\n      jumpi\n      0x00\n      dup1\n      revert\n    tag_19:\n      pop\n      tag_2\n      tag_21\n      jump\t// in\n        /* \"TimeLock.sol\":1098:1191  function getLocktime() public view returns(uint) {... */\n    tag_5:\n      callvalue\n      dup1\n      iszero\n      tag_22\n      jumpi\n      0x00\n      dup1\n      revert\n    tag_22:\n      pop\n        /* \"TimeLock.sol\":1173:1183  msg.sender */\n      caller\n        /* \"TimeLock.sol\":1141:1145  uint */\n      0x00\n        /* \"TimeLock.sol\":1164:1184  LOCKTIME[msg.sender] */\n      swap1\n      dup2\n      mstore\n        /* \"TimeLock.sol\":1164:1172  LOCKTIME */\n      0x03\n        /* \"TimeLock.sol\":1164:1184  LOCKTIME[msg.sender] */\n      0x20\n      mstore\n      0x40\n      swap1\n      keccak256\n      sload\n        /* \"TimeLock.sol\":1098:1191  function getLocktime() public view returns(uint) {... */\n      jump(tag_15)\n        /* \"TimeLock.sol\":389:499  function owner() public view returns (address) {... */\n    tag_6:\n      callvalue\n      dup1\n      iszero\n      tag_26\n      jumpi\n      0x00\n      dup1\n      revert\n    tag_26:\n      pop\n        /* \"TimeLock.sol\":427:434  address */\n      0x00\n        /* \"TimeLock.sol\":463:469  _owner */\n      sload\n        /* \"TimeLock.sol\":389:499  function owner() public view returns (address) {... */\n      mload(0x40)\n      sub(shl(0xa0, 0x01), 0x01)\n        /* \"TimeLock.sol\":463:469  _owner */\n      swap1\n      swap2\n      and\n        /* \"#utility.yul\":342:416   */\n      dup2\n      mstore\n        /* \"#utility.yul\":330:332   */\n      0x20\n        /* \"#utility.yul\":315:333   */\n      add\n        /* \"TimeLock.sol\":389:499  function owner() public view returns (address) {... */\n      tag_17\n        /* \"#utility.yul\":196:422   */\n      jump\n        /* \"TimeLock.sol\":941:1038  function getBalances(address account) public view returns(uint) {... */\n    tag_7:\n      callvalue\n      dup1\n      iszero\n      tag_31\n      jumpi\n      0x00\n      dup1\n      revert\n    tag_31:\n      pop\n      tag_15\n      tag_33\n      calldatasize\n      0x04\n      tag_34\n      jump\t// in\n    tag_33:\n      sub(shl(0xa0, 0x01), 0x01)\n        /* \"TimeLock.sol\":1018:1035  balances[account] */\n      and\n        /* \"TimeLock.sol\":999:1003  uint */\n      0x00\n        /* \"TimeLock.sol\":1018:1035  balances[account] */\n      swap1\n      dup2\n      mstore\n        /* \"TimeLock.sol\":1018:1026  balances */\n      0x02\n        /* \"TimeLock.sol\":1018:1035  balances[account] */\n      0x20\n      mstore\n      0x40\n      swap1\n      keccak256\n      sload\n      swap1\n        /* \"TimeLock.sol\":941:1038  function getBalances(address account) public view returns(uint) {... */\n      jump\n        /* \"TimeLock.sol\":582:870  function deposit() external payable {... */\n    tag_8:\n      tag_2\n      tag_38\n      jump\t// in\n        /* \"TimeLock.sol\":1196:1669  function withdraw() public {... */\n    tag_21:\n        /* \"TimeLock.sol\":1250:1260  msg.sender */\n      caller\n        /* \"TimeLock.sol\":1264:1265  0 */\n      0x00\n        /* \"TimeLock.sol\":1241:1261  balances[msg.sender] */\n      swap1\n      dup2\n      mstore\n        /* \"TimeLock.sol\":1241:1249  balances */\n      0x02\n        /* \"TimeLock.sol\":1241:1261  balances[msg.sender] */\n      0x20\n      mstore\n      0x40\n      swap1\n      keccak256\n      sload\n        /* \"TimeLock.sol\":1233:1287  require(balances[msg.sender] > 0, \"No Funds Availabe\") */\n      tag_41\n      jumpi\n      mload(0x40)\n      shl(0xe5, 0x461bcd)\n      dup2\n      mstore\n        /* \"#utility.yul\":943:945   */\n      0x20\n        /* \"TimeLock.sol\":1233:1287  require(balances[msg.sender] > 0, \"No Funds Availabe\") */\n      0x04\n      dup3\n      add\n        /* \"#utility.yul\":925:946   */\n      mstore\n        /* \"#utility.yul\":982:984   */\n      0x11\n        /* \"#utility.yul\":962:980   */\n      0x24\n      dup3\n      add\n        /* \"#utility.yul\":955:985   */\n      mstore\n        /* \"#utility.yul\":1021:1040   */\n      0x4e6f2046756e647320417661696c616265000000000000000000000000000000\n        /* \"#utility.yul\":1001:1019   */\n      0x44\n      dup3\n      add\n        /* \"#utility.yul\":994:1041   */\n      mstore\n        /* \"#utility.yul\":1058:1076   */\n      0x64\n      add\n        /* \"TimeLock.sol\":1233:1287  require(balances[msg.sender] > 0, \"No Funds Availabe\") */\n    tag_42:\n      mload(0x40)\n      dup1\n      swap2\n      sub\n      swap1\n      revert\n    tag_41:\n        /* \"TimeLock.sol\":1332:1342  msg.sender */\n      caller\n        /* \"TimeLock.sol\":1323:1343  LOCKTIME[msg.sender] */\n      0x00\n      swap1\n      dup2\n      mstore\n        /* \"TimeLock.sol\":1323:1331  LOCKTIME */\n      0x03\n        /* \"TimeLock.sol\":1323:1343  LOCKTIME[msg.sender] */\n      0x20\n      mstore\n      0x40\n      swap1\n      keccak256\n      sload\n        /* \"TimeLock.sol\":1305:1320  block.timestamp */\n      timestamp\n        /* \"TimeLock.sol\":1305:1343  block.timestamp > LOCKTIME[msg.sender] */\n      gt\n        /* \"TimeLock.sol\":1297:1383  require(block.timestamp > LOCKTIME[msg.sender], \"Dude!!! The time hasn't expired yet\") */\n      tag_44\n      jumpi\n      mload(0x40)\n      shl(0xe5, 0x461bcd)\n      dup2\n      mstore\n        /* \"#utility.yul\":1289:1291   */\n      0x20\n        /* \"TimeLock.sol\":1297:1383  require(block.timestamp > LOCKTIME[msg.sender], \"Dude!!! The time hasn't expired yet\") */\n      0x04\n      dup3\n      add\n        /* \"#utility.yul\":1271:1292   */\n      mstore\n        /* \"#utility.yul\":1328:1330   */\n      0x23\n        /* \"#utility.yul\":1308:1326   */\n      0x24\n      dup3\n      add\n        /* \"#utility.yul\":1301:1331   */\n      mstore\n        /* \"#utility.yul\":1367:1401   */\n      0x44756465212121205468652074696d65206861736e2774206578706972656420\n        /* \"#utility.yul\":1347:1365   */\n      0x44\n      dup3\n      add\n        /* \"#utility.yul\":1340:1402   */\n      mstore\n      shl(0xea, 0x1e595d)\n        /* \"#utility.yul\":1418:1436   */\n      0x64\n      dup3\n      add\n        /* \"#utility.yul\":1411:1444   */\n      mstore\n        /* \"#utility.yul\":1461:1480   */\n      0x84\n      add\n        /* \"TimeLock.sol\":1297:1383  require(block.timestamp > LOCKTIME[msg.sender], \"Dude!!! The time hasn't expired yet\") */\n      tag_42\n        /* \"#utility.yul\":1087:1486   */\n      jump\n        /* \"TimeLock.sol\":1297:1383  require(block.timestamp > LOCKTIME[msg.sender], \"Dude!!! The time hasn't expired yet\") */\n    tag_44:\n        /* \"TimeLock.sol\":1415:1421  _owner */\n      and(sub(shl(0xa0, 0x01), 0x01), sload(0x00))\n        /* \"TimeLock.sol\":1401:1411  msg.sender */\n      caller\n        /* \"TimeLock.sol\":1401:1421  msg.sender == _owner */\n      eq\n        /* \"TimeLock.sol\":1393:1471  require(msg.sender == _owner, \"You are not the owner of the contract!! dude \") */\n      tag_47\n      jumpi\n      mload(0x40)\n      shl(0xe5, 0x461bcd)\n      dup2\n      mstore\n        /* \"#utility.yul\":1693:1695   */\n      0x20\n        /* \"TimeLock.sol\":1393:1471  require(msg.sender == _owner, \"You are not the owner of the contract!! dude \") */\n      0x04\n      dup3\n      add\n        /* \"#utility.yul\":1675:1696   */\n      mstore\n        /* \"#utility.yul\":1732:1734   */\n      0x2d\n        /* \"#utility.yul\":1712:1730   */\n      0x24\n      dup3\n      add\n        /* \"#utility.yul\":1705:1735   */\n      mstore\n        /* \"#utility.yul\":1771:1805   */\n      0x596f7520617265206e6f7420746865206f776e6572206f662074686520636f6e\n        /* \"#utility.yul\":1751:1769   */\n      0x44\n      dup3\n      add\n        /* \"#utility.yul\":1744:1806   */\n      mstore\n        /* \"#utility.yul\":1842:1857   */\n      0x7472616374212120647564652000000000000000000000000000000000000000\n        /* \"#utility.yul\":1822:1840   */\n      0x64\n      dup3\n      add\n        /* \"#utility.yul\":1815:1858   */\n      mstore\n        /* \"#utility.yul\":1875:1894   */\n      0x84\n      add\n        /* \"TimeLock.sol\":1393:1471  require(msg.sender == _owner, \"You are not the owner of the contract!! dude \") */\n      tag_42\n        /* \"#utility.yul\":1491:1900   */\n      jump\n        /* \"TimeLock.sol\":1393:1471  require(msg.sender == _owner, \"You are not the owner of the contract!! dude \") */\n    tag_47:\n        /* \"TimeLock.sol\":1508:1518  msg.sender */\n      caller\n        /* \"TimeLock.sol\":1482:1496  uint256 amount */\n      0x00\n        /* \"TimeLock.sol\":1499:1519  balances[msg.sender] */\n      dup2\n      dup2\n      mstore\n        /* \"TimeLock.sol\":1499:1507  balances */\n      0x02\n        /* \"TimeLock.sol\":1499:1519  balances[msg.sender] */\n      0x20\n      mstore\n      0x40\n      dup1\n      dup3\n      keccak256\n      dup1\n      sload\n        /* \"TimeLock.sol\":1530:1554  balances[msg.sender] = 0 */\n      swap1\n      dup4\n      swap1\n      sstore\n        /* \"TimeLock.sol\":1580:1614  msg.sender.call{value: amount}(\"\") */\n      swap1\n      mload\n        /* \"TimeLock.sol\":1499:1519  balances[msg.sender] */\n      swap1\n      swap3\n        /* \"TimeLock.sol\":1508:1518  msg.sender */\n      swap1\n        /* \"TimeLock.sol\":1499:1519  balances[msg.sender] */\n      dup4\n      swap1\n        /* \"TimeLock.sol\":1482:1496  uint256 amount */\n      dup4\n        /* \"TimeLock.sol\":1580:1614  msg.sender.call{value: amount}(\"\") */\n      dup2\n        /* \"TimeLock.sol\":1482:1496  uint256 amount */\n      dup2\n        /* \"TimeLock.sol\":1580:1614  msg.sender.call{value: amount}(\"\") */\n      dup2\n        /* \"TimeLock.sol\":1499:1519  balances[msg.sender] */\n      dup6\n        /* \"TimeLock.sol\":1508:1518  msg.sender */\n      dup8\n        /* \"TimeLock.sol\":1580:1614  msg.sender.call{value: amount}(\"\") */\n      gas\n      call\n      swap3\n      pop\n      pop\n      pop\n      returndatasize\n      dup1\n      0x00\n      dup2\n      eq\n      tag_54\n      jumpi\n      mload(0x40)\n      swap2\n      pop\n      and(add(returndatasize, 0x3f), not(0x1f))\n      dup3\n      add\n      0x40\n      mstore\n      returndatasize\n      dup3\n      mstore\n      returndatasize\n      0x00\n      0x20\n      dup5\n      add\n      returndatacopy\n      jump(tag_53)\n    tag_54:\n      0x60\n      swap2\n      pop\n    tag_53:\n      pop\n        /* \"TimeLock.sol\":1565:1614  (bool sent,) = msg.sender.call{value: amount}(\"\") */\n      pop\n      swap1\n      pop\n        /* \"TimeLock.sol\":1632:1636  sent */\n      dup1\n        /* \"TimeLock.sol\":1624:1661  require(sent, \"Failed To Send Ether\") */\n      tag_55\n      jumpi\n      mload(0x40)\n      shl(0xe5, 0x461bcd)\n      dup2\n      mstore\n        /* \"#utility.yul\":2317:2319   */\n      0x20\n        /* \"TimeLock.sol\":1624:1661  require(sent, \"Failed To Send Ether\") */\n      0x04\n      dup3\n      add\n        /* \"#utility.yul\":2299:2320   */\n      mstore\n        /* \"#utility.yul\":2356:2358   */\n      0x14\n        /* \"#utility.yul\":2336:2354   */\n      0x24\n      dup3\n      add\n        /* \"#utility.yul\":2329:2359   */\n      mstore\n        /* \"#utility.yul\":2395:2417   */\n      0x4661696c656420546f2053656e64204574686572000000000000000000000000\n        /* \"#utility.yul\":2375:2393   */\n      0x44\n      dup3\n      add\n        /* \"#utility.yul\":2368:2418   */\n      mstore\n        /* \"#utility.yul\":2435:2453   */\n      0x64\n      add\n        /* \"TimeLock.sol\":1624:1661  require(sent, \"Failed To Send Ether\") */\n      tag_42\n        /* \"#utility.yul\":2115:2459   */\n      jump\n        /* \"TimeLock.sol\":1624:1661  require(sent, \"Failed To Send Ether\") */\n    tag_55:\n        /* \"TimeLock.sol\":1223:1669  {... */\n      pop\n      pop\n        /* \"TimeLock.sol\":1196:1669  function withdraw() public {... */\n      jump\t// out\n        /* \"TimeLock.sol\":582:870  function deposit() external payable {... */\n    tag_38:\n        /* \"TimeLock.sol\":644:645  0 */\n      0x00\n        /* \"TimeLock.sol\":632:641  msg.value */\n      callvalue\n        /* \"TimeLock.sol\":632:645  msg.value > 0 */\n      gt\n        /* \"TimeLock.sol\":624:687  require(msg.value > 0, \"Deposit amount must be greater than 0\") */\n      tag_62\n      jumpi\n      mload(0x40)\n      shl(0xe5, 0x461bcd)\n      dup2\n      mstore\n        /* \"#utility.yul\":2666:2668   */\n      0x20\n        /* \"TimeLock.sol\":624:687  require(msg.value > 0, \"Deposit amount must be greater than 0\") */\n      0x04\n      dup3\n      add\n        /* \"#utility.yul\":2648:2669   */\n      mstore\n        /* \"#utility.yul\":2705:2707   */\n      0x25\n        /* \"#utility.yul\":2685:2703   */\n      0x24\n      dup3\n      add\n        /* \"#utility.yul\":2678:2708   */\n      mstore\n        /* \"#utility.yul\":2744:2778   */\n      0x4465706f73697420616d6f756e74206d75737420626520677265617465722074\n        /* \"#utility.yul\":2724:2742   */\n      0x44\n      dup3\n      add\n        /* \"#utility.yul\":2717:2779   */\n      mstore\n        /* \"#utility.yul\":2815:2822   */\n      0x68616e2030000000000000000000000000000000000000000000000000000000\n        /* \"#utility.yul\":2795:2813   */\n      0x64\n      dup3\n      add\n        /* \"#utility.yul\":2788:2823   */\n      mstore\n        /* \"#utility.yul\":2840:2859   */\n      0x84\n      add\n        /* \"TimeLock.sol\":624:687  require(msg.value > 0, \"Deposit amount must be greater than 0\") */\n      tag_42\n        /* \"#utility.yul\":2464:2865   */\n      jump\n        /* \"TimeLock.sol\":624:687  require(msg.value > 0, \"Deposit amount must be greater than 0\") */\n    tag_62:\n        /* \"TimeLock.sol\":702:712  msg.sender */\n      caller\n        /* \"TimeLock.sol\":693:713  balances[msg.sender] */\n      0x00\n      swap1\n      dup2\n      mstore\n        /* \"TimeLock.sol\":693:701  balances */\n      0x02\n        /* \"TimeLock.sol\":693:713  balances[msg.sender] */\n      0x20\n      mstore\n      0x40\n      dup2\n      keccak256\n        /* \"TimeLock.sol\":693:726  balances[msg.sender] += msg.value */\n      dup1\n      sload\n        /* \"TimeLock.sol\":717:726  msg.value */\n      callvalue\n      swap3\n        /* \"TimeLock.sol\":693:713  balances[msg.sender] */\n      swap1\n        /* \"TimeLock.sol\":693:726  balances[msg.sender] += msg.value */\n      tag_65\n      swap1\n        /* \"TimeLock.sol\":717:726  msg.value */\n      dup5\n      swap1\n        /* \"TimeLock.sol\":693:726  balances[msg.sender] += msg.value */\n      tag_66\n      jump\t// in\n    tag_65:\n      swap1\n      swap2\n      sstore\n      pop\n      pop\n        /* \"TimeLock.sol\":744:754  msg.sender */\n      caller\n        /* \"TimeLock.sol\":735:755  LOCKTIME[msg.sender] */\n      0x00\n      swap1\n      dup2\n      mstore\n        /* \"TimeLock.sol\":735:743  LOCKTIME */\n      0x03\n        /* \"TimeLock.sol\":735:755  LOCKTIME[msg.sender] */\n      0x20\n      mstore\n      0x40\n      swap1\n      keccak256\n      sload\n        /* \"TimeLock.sol\":758:773  block.timestamp */\n      timestamp\n      gt\n        /* \"TimeLock.sol\":732:868  if(LOCKTIME[msg.sender] < block.timestamp) {... */\n      iszero\n      tag_67\n      jumpi\n        /* \"TimeLock.sol\":796:820  block.timestamp + 1 days */\n      tag_68\n        /* \"TimeLock.sol\":796:811  block.timestamp */\n      timestamp\n        /* \"TimeLock.sol\":814:820  1 days */\n      0x015180\n        /* \"TimeLock.sol\":796:820  block.timestamp + 1 days */\n      tag_66\n      jump\t// in\n    tag_68:\n        /* \"TimeLock.sol\":785:793  lockTime */\n      0x01\n        /* \"TimeLock.sol\":785:820  lockTime = block.timestamp + 1 days */\n      dup2\n      swap1\n      sstore\n        /* \"TimeLock.sol\":839:849  msg.sender */\n      caller\n        /* \"TimeLock.sol\":830:850  LOCKTIME[msg.sender] */\n      0x00\n      swap1\n      dup2\n      mstore\n        /* \"TimeLock.sol\":830:838  LOCKTIME */\n      0x03\n        /* \"TimeLock.sol\":830:850  LOCKTIME[msg.sender] */\n      0x20\n      mstore\n      0x40\n      swap1\n      keccak256\n        /* \"TimeLock.sol\":830:861  LOCKTIME[msg.sender] = lockTime */\n      sstore\n        /* \"TimeLock.sol\":732:868  if(LOCKTIME[msg.sender] < block.timestamp) {... */\n    tag_67:\n        /* \"TimeLock.sol\":582:870  function deposit() external payable {... */\n      jump\t// out\n        /* \"#utility.yul\":427:736   */\n    tag_34:\n        /* \"#utility.yul\":486:492   */\n      0x00\n        /* \"#utility.yul\":539:541   */\n      0x20\n        /* \"#utility.yul\":527:536   */\n      dup3\n        /* \"#utility.yul\":518:525   */\n      dup5\n        /* \"#utility.yul\":514:537   */\n      sub\n        /* \"#utility.yul\":510:542   */\n      slt\n        /* \"#utility.yul\":507:559   */\n      iszero\n      tag_73\n      jumpi\n        /* \"#utility.yul\":555:556   */\n      0x00\n        /* \"#utility.yul\":552:553   */\n      dup1\n        /* \"#utility.yul\":545:557   */\n      revert\n        /* \"#utility.yul\":507:559   */\n    tag_73:\n        /* \"#utility.yul\":594:603   */\n      dup2\n        /* \"#utility.yul\":581:604   */\n      calldataload\n      sub(shl(0xa0, 0x01), 0x01)\n        /* \"#utility.yul\":637:642   */\n      dup2\n        /* \"#utility.yul\":633:687   */\n      and\n        /* \"#utility.yul\":626:631   */\n      dup2\n        /* \"#utility.yul\":623:688   */\n      eq\n        /* \"#utility.yul\":613:706   */\n      tag_74\n      jumpi\n        /* \"#utility.yul\":702:703   */\n      0x00\n        /* \"#utility.yul\":699:700   */\n      dup1\n        /* \"#utility.yul\":692:704   */\n      revert\n        /* \"#utility.yul\":613:706   */\n    tag_74:\n        /* \"#utility.yul\":725:730   */\n      swap4\n        /* \"#utility.yul\":427:736   */\n      swap3\n      pop\n      pop\n      pop\n      jump\t// out\n        /* \"#utility.yul\":2870:3092   */\n    tag_66:\n        /* \"#utility.yul\":2935:2944   */\n      dup1\n      dup3\n      add\n        /* \"#utility.yul\":2956:2966   */\n      dup1\n      dup3\n      gt\n        /* \"#utility.yul\":2953:3086   */\n      iszero\n      tag_82\n      jumpi\n        /* \"#utility.yul\":3008:3018   */\n      0x4e487b71\n        /* \"#utility.yul\":3003:3006   */\n      0xe0\n        /* \"#utility.yul\":2999:3019   */\n      shl\n        /* \"#utility.yul\":2996:2997   */\n      0x00\n        /* \"#utility.yul\":2989:3020   */\n      mstore\n        /* \"#utility.yul\":3043:3047   */\n      0x11\n        /* \"#utility.yul\":3040:3041   */\n      0x04\n        /* \"#utility.yul\":3033:3048   */\n      mstore\n        /* \"#utility.yul\":3071:3075   */\n      0x24\n        /* \"#utility.yul\":3068:3069   */\n      0x00\n        /* \"#utility.yul\":3061:3076   */\n      revert\n        /* \"#utility.yul\":2953:3086   */\n    tag_82:\n        /* \"#utility.yul\":2870:3092   */\n      swap3\n      swap2\n      pop\n      pop\n      jump\t// out\n\n    auxdata: 0xa2646970667358221220b04000810c086e19681152be4d55375baac118fdc51ed5d383a1b6d037b5436864736f6c63430008110033\n}\n",
    "bytecode": {
      "linkReferences": {},
      "object": "608060405234801561001057600080fd5b50600080546001600160a01b03191633179055610488806100326000396000f3fe6080604052600436106100635760003560e01c80638da5cb5b116100405780638da5cb5b146100c5578063c84aae17146100ed578063d0e30db01461012357005b806319af2c441461006c5780633ccfd60b1461008e578063670b2fbd146100a357005b3661006a57005b005b34801561007857600080fd5b50475b6040519081526020015b60405180910390f35b34801561009a57600080fd5b5061006a61012b565b3480156100af57600080fd5b503360009081526003602052604090205461007b565b3480156100d157600080fd5b506000546040516001600160a01b039091168152602001610085565b3480156100f957600080fd5b5061007b6101083660046103fb565b6001600160a01b031660009081526002602052604090205490565b61006a610325565b3360009081526002602052604090205461018c5760405162461bcd60e51b815260206004820152601160248201527f4e6f2046756e647320417661696c61626500000000000000000000000000000060448201526064015b60405180910390fd5b3360009081526003602052604090205442116101f65760405162461bcd60e51b815260206004820152602360248201527f44756465212121205468652074696d65206861736e27742065787069726564206044820152621e595d60ea1b6064820152608401610183565b6000546001600160a01b031633146102765760405162461bcd60e51b815260206004820152602d60248201527f596f7520617265206e6f7420746865206f776e6572206f662074686520636f6e60448201527f74726163742121206475646520000000000000000000000000000000000000006064820152608401610183565b33600081815260026020526040808220805490839055905190929083908381818185875af1925050503d80600081146102cb576040519150601f19603f3d011682016040523d82523d6000602084013e6102d0565b606091505b50509050806103215760405162461bcd60e51b815260206004820152601460248201527f4661696c656420546f2053656e642045746865720000000000000000000000006044820152606401610183565b5050565b6000341161039b5760405162461bcd60e51b815260206004820152602560248201527f4465706f73697420616d6f756e74206d7573742062652067726561746572207460448201527f68616e20300000000000000000000000000000000000000000000000000000006064820152608401610183565b33600090815260026020526040812080543492906103ba90849061042b565b9091555050336000908152600360205260409020544211156103f9576103e3426201518061042b565b6001819055336000908152600360205260409020555b565b60006020828403121561040d57600080fd5b81356001600160a01b038116811461042457600080fd5b9392505050565b8082018082111561044c57634e487b7160e01b600052601160045260246000fd5b9291505056fea2646970667358221220b04000810c086e19681152be4d55375baac118fdc51ed5d383a1b6d037b5436864736f6c63430008110033",
      "opcodes": "PUSH1 0x80 PUSH1 0x40 MSTORE CALLVALUE DUP1 ISZERO PUSH2 0x10 JUMPI PUSH1 0x0 DUP1 REVERT JUMPDEST POP PUSH1 0x0 DUP1 SLOAD PUSH1 0x1 PUSH1 0x1 PUSH1 0xA0 SHL SUB NOT AND CALLER OR SWAP1 SSTORE PUSH2 0x488 DUP1 PUSH2 0x32 PUSH1 0x0 CODECOPY PUSH1 0x0 RETURN INVALID PUSH1 0x80 PUSH1 0x40 MSTORE PUSH1 0x4 CALLDATASIZE LT PUSH2 0x63 JUMPI PUSH1 0x0 CALLDATALOAD PUSH1 0xE0 SHR DUP1 PUSH4 0x8DA5CB5B GT PUSH2 0x40 JUMPI DUP1 PUSH4 0x8DA5CB5B EQ PUSH2 0xC5 JUMPI DUP1 PUSH4 0xC84AAE17 EQ PUSH2 0xED JUMPI DUP1 PUSH4 0xD0E30DB0 EQ PUSH2 0x123 JUMPI STOP JUMPDEST DUP1 PUSH4 0x19AF2C44 EQ PUSH2 0x6C JUMPI DUP1 PUSH4 0x3CCFD60B EQ PUSH2 0x8E JUMPI DUP1 PUSH4 0x670B2FBD EQ PUSH2 0xA3 JUMPI STOP JUMPDEST CALLDATASIZE PUSH2 0x6A JUMPI STOP JUMPDEST STOP JUMPDEST CALLVALUE DUP1 ISZERO PUSH2 0x78 JUMPI PUSH1 0x0 DUP1 REVERT JUMPDEST POP SELFBALANCE JUMPDEST PUSH1 0x40 MLOAD SWAP1 DUP2 MSTORE PUSH1 0x20 ADD JUMPDEST PUSH1 0x40 MLOAD DUP1 SWAP2 SUB SWAP1 RETURN JUMPDEST CALLVALUE DUP1 ISZERO PUSH2 0x9A JUMPI PUSH1 0x0 DUP1 REVERT JUMPDEST POP PUSH2 0x6A PUSH2 0x12B JUMP JUMPDEST CALLVALUE DUP1 ISZERO PUSH2 0xAF JUMPI PUSH1 0x0 DUP1 REVERT JUMPDEST POP CALLER PUSH1 0x0 SWAP1 DUP2 MSTORE PUSH1 0x3 PUSH1 0x20 MSTORE PUSH1 0x40 SWAP1 KECCAK256 SLOAD PUSH2 0x7B JUMP JUMPDEST CALLVALUE DUP1 ISZERO PUSH2 0xD1 JUMPI PUSH1 0x0 DUP1 REVERT JUMPDEST POP PUSH1 0x0 SLOAD PUSH1 0x40 MLOAD PUSH1 0x1 PUSH1 0x1 PUSH1 0xA0 SHL SUB SWAP1 SWAP2 AND DUP2 MSTORE PUSH1 0x20 ADD PUSH2 0x85 JUMP JUMPDEST CALLVALUE DUP1 ISZERO PUSH2 0xF9 JUMPI PUSH1 0x0 DUP1 REVERT JUMPDEST POP PUSH2 0x7B PUSH2 0x108 CALLDATASIZE PUSH1 0x4 PUSH2 0x3FB JUMP JUMPDEST PUSH1 0x1 PUSH1 0x1 PUSH1 0xA0 SHL SUB AND PUSH1 0x0 SWAP1 DUP2 MSTORE PUSH1 0x2 PUSH1 0x20 MSTORE PUSH1 0x40 SWAP1 KECCAK256 SLOAD SWAP1 JUMP JUMPDEST PUSH2 0x6A PUSH2 0x325 JUMP JUMPDEST CALLER PUSH1 0x0 SWAP1 DUP2 MSTORE PUSH1 0x2 PUSH1 0x20 MSTORE PUSH1 0x40 SWAP1 KECCAK256 SLOAD PUSH2 0x18C JUMPI PUSH1 0x40 MLOAD PUSH3 0x461BCD PUSH1 0xE5 SHL DUP2 MSTORE PUSH1 0x20 PUSH1 0x4 DUP3 ADD MSTORE PUSH1 0x11 PUSH1 0x24 DUP3 ADD MSTORE PUSH32 0x4E6F2046756E647320417661696C616265000000000000000000000000000000 PUSH1 0x44 DUP3 ADD MSTORE PUSH1 0x64 ADD JUMPDEST PUSH1 0x40 MLOAD DUP1 SWAP2 SUB SWAP1 REVERT JUMPDEST CALLER PUSH1 0x0 SWAP1 DUP2 MSTORE PUSH1 0x3 PUSH1 0x20 MSTORE PUSH1 0x40 SWAP1 KECCAK256 SLOAD TIMESTAMP GT PUSH2 0x1F6 JUMPI PUSH1 0x40 MLOAD PUSH3 0x461BCD PUSH1 0xE5 SHL DUP2 MSTORE PUSH1 0x20 PUSH1 0x4 DUP3 ADD MSTORE PUSH1 0x23 PUSH1 0x24 DUP3 ADD MSTORE PUSH32 0x44756465212121205468652074696D65206861736E2774206578706972656420 PUSH1 0x44 DUP3 ADD MSTORE PUSH3 0x1E595D PUSH1 0xEA SHL PUSH1 0x64 DUP3 ADD MSTORE PUSH1 0x84 ADD PUSH2 0x183 JUMP JUMPDEST PUSH1 0x0 SLOAD PUSH1 0x1 PUSH1 0x1 PUSH1 0xA0 SHL SUB AND CALLER EQ PUSH2 0x276 JUMPI PUSH1 0x40 MLOAD PUSH3 0x461BCD PUSH1 0xE5 SHL DUP2 MSTORE PUSH1 0x20 PUSH1 0x4 DUP3 ADD MSTORE PUSH1 0x2D PUSH1 0x24 DUP3 ADD MSTORE PUSH32 0x596F7520617265206E6F7420746865206F776E6572206F662074686520636F6E PUSH1 0x44 DUP3 ADD MSTORE PUSH32 0x7472616374212120647564652000000000000000000000000000000000000000 PUSH1 0x64 DUP3 ADD MSTORE PUSH1 0x84 ADD PUSH2 0x183 JUMP JUMPDEST CALLER PUSH1 0x0 DUP2 DUP2 MSTORE PUSH1 0x2 PUSH1 0x20 MSTORE PUSH1 0x40 DUP1 DUP3 KECCAK256 DUP1 SLOAD SWAP1 DUP4 SWAP1 SSTORE SWAP1 MLOAD SWAP1 SWAP3 SWAP1 DUP4 SWAP1 DUP4 DUP2 DUP2 DUP2 DUP6 DUP8 GAS CALL SWAP3 POP POP POP RETURNDATASIZE DUP1 PUSH1 0x0 DUP2 EQ PUSH2 0x2CB JUMPI PUSH1 0x40 MLOAD SWAP2 POP PUSH1 0x1F NOT PUSH1 0x3F RETURNDATASIZE ADD AND DUP3 ADD PUSH1 0x40 MSTORE RETURNDATASIZE DUP3 MSTORE RETURNDATASIZE PUSH1 0x0 PUSH1 0x20 DUP5 ADD RETURNDATACOPY PUSH2 0x2D0 JUMP JUMPDEST PUSH1 0x60 SWAP2 POP JUMPDEST POP POP SWAP1 POP DUP1 PUSH2 0x321 JUMPI PUSH1 0x40 MLOAD PUSH3 0x461BCD PUSH1 0xE5 SHL DUP2 MSTORE PUSH1 0x20 PUSH1 0x4 DUP3 ADD MSTORE PUSH1 0x14 PUSH1 0x24 DUP3 ADD MSTORE PUSH32 0x4661696C656420546F2053656E64204574686572000000000000000000000000 PUSH1 0x44 DUP3 ADD MSTORE PUSH1 0x64 ADD PUSH2 0x183 JUMP JUMPDEST POP POP JUMP JUMPDEST PUSH1 0x0 CALLVALUE GT PUSH2 0x39B JUMPI PUSH1 0x40 MLOAD PUSH3 0x461BCD PUSH1 0xE5 SHL DUP2 MSTORE PUSH1 0x20 PUSH1 0x4 DUP3 ADD MSTORE PUSH1 0x25 PUSH1 0x24 DUP3 ADD MSTORE PUSH32 0x4465706F73697420616D6F756E74206D75737420626520677265617465722074 PUSH1 0x44 DUP3 ADD MSTORE PUSH32 0x68616E2030000000000000000000000000000000000000000000000000000000 PUSH1 0x64 DUP3 ADD MSTORE PUSH1 0x84 ADD PUSH2 0x183 JUMP JUMPDEST CALLER PUSH1 0x0 SWAP1 DUP2 MSTORE PUSH1 0x2 PUSH1 0x20 MSTORE PUSH1 0x40 DUP2 KECCAK256 DUP1 SLOAD CALLVALUE SWAP3 SWAP1 PUSH2 0x3BA SWAP1 DUP5 SWAP1 PUSH2 0x42B JUMP JUMPDEST SWAP1 SWAP2 SSTORE POP POP CALLER PUSH1 0x0 SWAP1 DUP2 MSTORE PUSH1 0x3 PUSH1 0x20 MSTORE PUSH1 0x40 SWAP1 KECCAK256 SLOAD TIMESTAMP GT ISZERO PUSH2 0x3F9 JUMPI PUSH2 0x3E3 TIMESTAMP PUSH3 0x15180 PUSH2 0x42B JUMP JUMPDEST PUSH1 0x1 DUP2 SWAP1 SSTORE CALLER PUSH1 0x0 SWAP1 DUP2 MSTORE PUSH1 0x3 PUSH1 0x20 MSTORE PUSH1 0x40 SWAP1 KECCAK256 SSTORE JUMPDEST JUMP JUMPDEST PUSH1 0x0 PUSH1 0x20 DUP3 DUP5 SUB SLT ISZERO PUSH2 0x40D JUMPI PUSH1 0x0 DUP1 REVERT JUMPDEST DUP2 CALLDATALOAD PUSH1 0x1 PUSH1 0x1 PUSH1 0xA0 SHL SUB DUP2 AND DUP2 EQ PUSH2 0x424 JUMPI PUSH1 0x0 DUP1 REVERT JUMPDEST SWAP4 SWAP3 POP POP POP JUMP JUMPDEST DUP1 DUP3 ADD DUP1 DUP3 GT ISZERO PUSH2 0x44C JUMPI PUSH4 0x4E487B71 PUSH1 0xE0 SHL PUSH1 0x0 MSTORE PUSH1 0x11 PUSH1 0x4 MSTORE PUSH1 0x24 PUSH1 0x0 REVERT JUMPDEST SWAP3 SWAP2 POP POP JUMP INVALID LOG2 PUSH5 0x6970667358 0x22 SLT KECCAK256 0xB0 BLOCKHASH STOP DUP2 0xC ADDMOD PUSH15 0x19681152BE4D55375BAAC118FDC51E 0xD5 0xD3 DUP4 LOG1 0xB6 0xD0 CALLDATACOPY 0xB5 NUMBER PUSH9 0x64736F6C6343000811 STOP CALLER "
    },
    "gasEstimates": {
      "creation": {
        "codeDepositCost": "232000",
        "executionCost": "24510",
        "totalCost": "256510"
      },
      "external": {
        "": "140",
        "deposit()": "infinite",
        "getBalances(address)": "2513",
        "getLocktime()": "2394",
        "owner()": "2301",
        "returnThisContract()": "173",
        "withdraw()": "infinite"
      }
    },
    "methodIdentifiers": {
      "deposit()": "d0e30db0",
      "getBalances(address)": "c84aae17",
      "getLocktime()": "670b2fbd",
      "owner()": "8da5cb5b",
      "returnThisContract()": "19af2c44",
      "withdraw()": "3ccfd60b"
    }
  },
  "storageLayout": {
    "storage": [
      {
        "astId": 3,
        "contract": "TimeLock.sol:Timelock",
        "label": "_owner",
        "offset": 0,
        "slot": "0",
        "type": "t_address"
      },
      {
        "astId": 5,
        "contract": "TimeLock.sol:Timelock",
        "label": "lockTime",
        "offset": 0,
        "slot": "1",
        "type": "t_uint256"
      },
      {
        "astId": 18,
        "contract": "TimeLock.sol:Timelock",
        "label": "balances",
        "offset": 0,
        "slot": "2",
        "type": "t_mapping(t_address,t_uint256)"
      },
      {
        "astId": 22,
        "contract": "TimeLock.sol:Timelock",
        "label": "LOCKTIME",
        "offset": 0,
        "slot": "3",
        "type": "t_mapping(t_address,t_uint256)"
      }
    ],
    "types": {
      "t_address": {
        "encoding": "inplace",
        "label": "address",
        "numberOfBytes": "20"
      },
      "t_mapping(t_address,t_uint256)": {
        "encoding": "mapping",
        "key": "t_address",
        "label": "mapping(address => uint256)",
        "numberOfBytes": "32",
        "value": "t_uint256"
      },
      "t_uint256": {
        "encoding": "inplace",
        "label": "uint256",
        "numberOfBytes": "32"
      }
    }
  },
  "userdoc": {
    "kind": "user",
    "methods": {},
    "version": 1
  }
}